0029029070999991900010106004+64333+023450FM-12+000599999V0202701N015919999999N0000001N9+00111+99999102001ADDGF108991999999999999999999
0029029070999991900010113004+64333+023450FM-12+000599999V0202901N008219999999N0000001N9+00221+99999102001ADDGF104991999999999999999999
0029029070999991950010120004+64333+023450FM-12+000599999V0209991C000019999999N0000001N9+00331+99999102001ADDGF108991999999999999999999
0029029070999991950010206004+64333+023450FM-12+000599999V0201801N008219999999N0000001N9+00441+99999101831ADDGF108991999999999999999999
0029029070999991950010213004+64333+023450FM-12+000599999V0201801N009819999999N0000001N9+00551+99999101761ADDGF108991999999999999999999
